{
  "contractName": "safeTraffic",
  "abi": [
    {
      "inputs": [],
      "payable": false,
      "stateMutability": "nonpayable",
      "type": "constructor"
    },
    {
      "constant": false,
      "inputs": [
        {
          "internalType": "string",
          "name": "_FIO",
          "type": "string"
        }
      ],
      "name": "regUser",
      "outputs": [],
      "payable": false,
      "stateMutability": "nonpayable",
      "type": "function"
    },
    {
      "constant": true,
      "inputs": [],
      "name": "getUserInfo",
      "outputs": [
        {
          "internalType": "uint256",
          "name": "",
          "type": "uint256"
        },
        {
          "internalType": "string",
          "name": "",
          "type": "string"
        },
        {
          "internalType": "address",
          "name": "",
          "type": "address"
        },
        {
          "internalType": "uint256",
          "name": "",
          "type": "uint256"
        }
      ],
      "payable": false,
      "stateMutability": "view",
      "type": "function"
    },
    {
      "constant": false,
      "inputs": [
        {
          "internalType": "uint256",
          "name": "_expStartYear",
          "type": "uint256"
        }
      ],
      "name": "regDriverProfile",
      "outputs": [],
      "payable": false,
      "stateMutability": "nonpayable",
      "type": "function"
    },
    {
      "constant": true,
      "inputs": [],
      "name": "getDriverInfo",
      "outputs": [
        {
          "internalType": "uint256",
          "name": "",
          "type": "uint256"
        },
        {
          "internalType": "string",
          "name": "",
          "type": "string"
        },
        {
          "internalType": "uint256",
          "name": "",
          "type": "uint256"
        },
        {
          "internalType": "uint256",
          "name": "",
          "type": "uint256"
        },
        {
          "internalType": "uint256",
          "name": "",
          "type": "uint256"
        },
        {
          "internalType": "uint256",
          "name": "",
          "type": "uint256"
        },
        {
          "internalType": "uint256",
          "name": "",
          "type": "uint256"
        },
        {
          "internalType": "address",
          "name": "",
          "type": "address"
        },
        {
          "internalType": "bool",
          "name": "",
          "type": "bool"
        }
      ],
      "payable": false,
      "stateMutability": "view",
      "type": "function"
    },
    {
      "constant": true,
      "inputs": [],
      "name": "getDriversForDPS",
      "outputs": [
        {
          "internalType": "uint256",
          "name": "",
          "type": "uint256"
        },
        {
          "internalType": "string",
          "name": "",
          "type": "string"
        },
        {
          "internalType": "uint256",
          "name": "",
          "type": "uint256"
        },
        {
          "internalType": "uint256",
          "name": "",
          "type": "uint256"
        },
        {
          "internalType": "uint256",
          "name": "",
          "type": "uint256"
        },
        {
          "internalType": "uint256",
          "name": "",
          "type": "uint256"
        },
        {
          "internalType": "uint256",
          "name": "",
          "type": "uint256"
        },
        {
          "internalType": "address",
          "name": "",
          "type": "address"
        },
        {
          "internalType": "bool",
          "name": "",
          "type": "bool"
        }
      ],
      "payable": false,
      "stateMutability": "view",
      "type": "function"
    },
    {
      "constant": false,
      "inputs": [
        {
          "internalType": "uint256",
          "name": "_userID",
          "type": "uint256"
        }
      ],
      "name": "regDPSofficerProfile",
      "outputs": [],
      "payable": false,
      "stateMutability": "nonpayable",
      "type": "function"
    },
    {
      "constant": false,
      "inputs": [],
      "name": "userMode",
      "outputs": [],
      "payable": false,
      "stateMutability": "nonpayable",
      "type": "function"
    },
    {
      "constant": false,
      "inputs": [],
      "name": "driverMode",
      "outputs": [],
      "payable": false,
      "stateMutability": "nonpayable",
      "type": "function"
    },
    {
      "constant": false,
      "inputs": [],
      "name": "DPSmode",
      "outputs": [],
      "payable": false,
      "stateMutability": "nonpayable",
      "type": "function"
    },
    {
      "constant": false,
      "inputs": [
        {
          "internalType": "uint256",
          "name": "_number",
          "type": "uint256"
        },
        {
          "internalType": "string",
          "name": "_validTime",
          "type": "string"
        },
        {
          "internalType": "string",
          "name": "_categoryLetter",
          "type": "string"
        }
      ],
      "name": "regDriversLicense",
      "outputs": [],
      "payable": false,
      "stateMutability": "nonpayable",
      "type": "function"
    },
    {
      "constant": true,
      "inputs": [],
      "name": "getDriversLicenses",
      "outputs": [
        {
          "internalType": "uint256",
          "name": "",
          "type": "uint256"
        },
        {
          "internalType": "uint256",
          "name": "",
          "type": "uint256"
        },
        {
          "internalType": "string",
          "name": "",
          "type": "string"
        },
        {
          "internalType": "string",
          "name": "",
          "type": "string"
        },
        {
          "internalType": "address",
          "name": "",
          "type": "address"
        },
        {
          "internalType": "bool",
          "name": "",
          "type": "bool"
        },
        {
          "internalType": "bool",
          "name": "",
          "type": "bool"
        }
      ],
      "payable": false,
      "stateMutability": "view",
      "type": "function"
    },
    {
      "constant": false,
      "inputs": [
        {
          "internalType": "uint256",
          "name": "_ownerID",
          "type": "uint256"
        }
      ],
      "name": "verifyDriversLicense",
      "outputs": [],
      "payable": false,
      "stateMutability": "nonpayable",
      "type": "function"
    },
    {
      "constant": false,
      "inputs": [],
      "name": "driversLicenseExtend",
      "outputs": [],
      "payable": false,
      "stateMutability": "nonpayable",
      "type": "function"
    },
    {
      "constant": false,
      "inputs": [
        {
          "internalType": "uint256",
          "name": "_ownerID",
          "type": "uint256"
        }
      ],
      "name": "deactivateDriversLicense",
      "outputs": [],
      "payable": false,
      "stateMutability": "nonpayable",
      "type": "function"
    },
    {
      "constant": false,
      "inputs": [
        {
          "internalType": "string",
          "name": "_categoryLetter",
          "type": "string"
        },
        {
          "internalType": "uint256",
          "name": "_periodOfUse",
          "type": "uint256"
        },
        {
          "internalType": "uint256",
          "name": "_marketValue",
          "type": "uint256"
        }
      ],
      "name": "registerVehicle",
      "outputs": [],
      "payable": false,
      "stateMutability": "nonpayable",
      "type": "function"
    },
    {
      "constant": true,
      "inputs": [],
      "name": "getVehiclesForDPS",
      "outputs": [
        {
          "internalType": "uint256",
          "name": "",
          "type": "uint256"
        },
        {
          "internalType": "uint256",
          "name": "",
          "type": "uint256"
        },
        {
          "internalType": "string",
          "name": "",
          "type": "string"
        },
        {
          "internalType": "uint256",
          "name": "",
          "type": "uint256"
        },
        {
          "internalType": "uint256",
          "name": "",
          "type": "uint256"
        },
        {
          "internalType": "bool",
          "name": "",
          "type": "bool"
        }
      ],
      "payable": false,
      "stateMutability": "view",
      "type": "function"
    },
    {
      "constant": false,
      "inputs": [
        {
          "internalType": "uint256",
          "name": "_vehicleID",
          "type": "uint256"
        }
      ],
      "name": "verifyVehicle",
      "outputs": [],
      "payable": false,
      "stateMutability": "nonpayable",
      "type": "function"
    },
    {
      "constant": true,
      "inputs": [],
      "name": "getVehiclesForDriver",
      "outputs": [
        {
          "internalType": "uint256",
          "name": "",
          "type": "uint256"
        },
        {
          "internalType": "uint256",
          "name": "",
          "type": "uint256"
        },
        {
          "internalType": "string",
          "name": "",
          "type": "string"
        },
        {
          "internalType": "uint256",
          "name": "",
          "type": "uint256"
        },
        {
          "internalType": "uint256",
          "name": "",
          "type": "uint256"
        },
        {
          "internalType": "bool",
          "name": "",
          "type": "bool"
        }
      ],
      "payable": false,
      "stateMutability": "view",
      "type": "function"
    },
    {
      "constant": false,
      "inputs": [
        {
          "internalType": "string",
          "name": "_FIO",
          "type": "string"
        },
        {
          "internalType": "uint256",
          "name": "_vehicleID",
          "type": "uint256"
        }
      ],
      "name": "requestInsurance",
      "outputs": [],
      "payable": false,
      "stateMutability": "nonpayable",
      "type": "function"
    },
    {
      "constant": true,
      "inputs": [],
      "name": "getInsuranceRequests",
      "outputs": [
        {
          "internalType": "uint256",
          "name": "",
          "type": "uint256"
        },
        {
          "internalType": "uint256",
          "name": "",
          "type": "uint256"
        },
        {
          "internalType": "string",
          "name": "",
          "type": "string"
        },
        {
          "internalType": "uint256",
          "name": "",
          "type": "uint256"
        },
        {
          "internalType": "address",
          "name": "",
          "type": "address"
        }
      ],
      "payable": false,
      "stateMutability": "view",
      "type": "function"
    },
    {
      "constant": false,
      "inputs": [
        {
          "internalType": "uint256",
          "name": "_requestID",
          "type": "uint256"
        }
      ],
      "name": "verifyInsuranceRequest",
      "outputs": [],
      "payable": false,
      "stateMutability": "nonpayable",
      "type": "function"
    },
    {
      "constant": true,
      "inputs": [],
      "name": "getDriversInsuranceRequests",
      "outputs": [
        {
          "internalType": "uint256",
          "name": "",
          "type": "uint256"
        },
        {
          "internalType": "uint256",
          "name": "",
          "type": "uint256"
        },
        {
          "internalType": "string",
          "name": "",
          "type": "string"
        },
        {
          "internalType": "uint256",
          "name": "",
          "type": "uint256"
        },
        {
          "internalType": "uint256",
          "name": "",
          "type": "uint256"
        },
        {
          "internalType": "address",
          "name": "",
          "type": "address"
        },
        {
          "internalType": "bool",
          "name": "",
          "type": "bool"
        },
        {
          "internalType": "bool",
          "name": "",
          "type": "bool"
        }
      ],
      "payable": false,
      "stateMutability": "view",
      "type": "function"
    },
    {
      "constant": false,
      "inputs": [
        {
          "internalType": "uint256",
          "name": "_requestID",
          "type": "uint256"
        }
      ],
      "name": "payInsuranceFee",
      "outputs": [],
      "payable": false,
      "stateMutability": "nonpayable",
      "type": "function"
    },
    {
      "constant": false,
      "inputs": [
        {
          "internalType": "uint256",
          "name": "_victimID",
          "type": "uint256"
        },
        {
          "internalType": "string",
          "name": "_DTPdate",
          "type": "string"
        }
      ],
      "name": "registerDTP",
      "outputs": [],
      "payable": false,
      "stateMutability": "nonpayable",
      "type": "function"
    },
    {
      "constant": true,
      "inputs": [],
      "name": "getDTPsForDriver",
      "outputs": [
        {
          "internalType": "uint256",
          "name": "",
          "type": "uint256"
        },
        {
          "internalType": "uint256",
          "name": "",
          "type": "uint256"
        },
        {
          "internalType": "uint256",
          "name": "",
          "type": "uint256"
        },
        {
          "internalType": "string",
          "name": "",
          "type": "string"
        },
        {
          "internalType": "bool",
          "name": "",
          "type": "bool"
        }
      ],
      "payable": false,
      "stateMutability": "view",
      "type": "function"
    },
    {
      "constant": false,
      "inputs": [
        {
          "internalType": "uint256",
          "name": "_DTPid",
          "type": "uint256"
        }
      ],
      "name": "confirmDTP",
      "outputs": [],
      "payable": false,
      "stateMutability": "nonpayable",
      "type": "function"
    },
    {
      "constant": false,
      "inputs": [
        {
          "internalType": "uint256",
          "name": "_DTPid",
          "type": "uint256"
        },
        {
          "internalType": "uint256",
          "name": "_requestID",
          "type": "uint256"
        }
      ],
      "name": "insuranceCasePayback",
      "outputs": [],
      "payable": false,
      "stateMutability": "nonpayable",
      "type": "function"
    },
    {
      "constant": false,
      "inputs": [
        {
          "internalType": "uint256",
          "name": "_driverID",
          "type": "uint256"
        }
      ],
      "name": "registerFine",
      "outputs": [],
      "payable": false,
      "stateMutability": "nonpayable",
      "type": "function"
    },
    {
      "constant": true,
      "inputs": [],
      "name": "getFinesForDriver",
      "outputs": [
        {
          "internalType": "uint256",
          "name": "",
          "type": "uint256"
        },
        {
          "internalType": "uint256",
          "name": "",
          "type": "uint256"
        },
        {
          "internalType": "uint256",
          "name": "",
          "type": "uint256"
        },
        {
          "internalType": "bool",
          "name": "",
          "type": "bool"
        }
      ],
      "payable": false,
      "stateMutability": "view",
      "type": "function"
    },
    {
      "constant": false,
      "inputs": [
        {
          "internalType": "uint256",
          "name": "_fineID",
          "type": "uint256"
        }
      ],
      "name": "payFine",
      "outputs": [],
      "payable": false,
      "stateMutability": "nonpayable",
      "type": "function"
    }
  ],
  "bytecode": "0x608060405233600860006101000a81548173ffffffffffffffffffffffffffffffffffffffff021916908373ffffffffffffffffffffffffffffffffffffffff1602179055506000600960006101000a81548173ffffffffffffffffffffffffffffffffffffffff021916908373ffffffffffffffffffffffffffffffffffffffff16021790555073583031d1113ad414f02576bd6afabfb302140225600a60006101000a81548173ffffffffffffffffffffffffffffffffffffffff021916908373ffffffffffffffffffffffffffffffffffffffff16021790555073dd870fa1b7c4700f2bd7f44238821c26f7392148600b60006101000a81548173ffffffffffffffffffffffffffffffffffffffff021916908373ffffffffffffffffffffffffffffffffffffffff1602179055503480156200013e57600080fd5b506040518060400160405280600181526020017f4100000000000000000000000000000000000000000000000000000000000000815250600c60006001815260200190815260200160002090805190602001906200019e92919062000331565b506040518060400160405280600181526020017f4200000000000000000000000000000000000000000000000000000000000000815250600c6000600281526020019081526020016000209080519060200190620001fe92919062000331565b506040518060400160405280600181526020017f4300000000000000000000000000000000000000000000000000000000000000815250600c60006003815260200190815260200160002090805190602001906200025e92919062000331565b506001600e60405180807f410000000000000000000000000000000000000000000000000000000000000081525060010190509081526020016040518091039020819055506002600e60405180807f420000000000000000000000000000000000000000000000000000000000000081525060010190509081526020016040518091039020819055506003600e60405180807f43000000000000000000000000000000000000000000000000000000000000008152506001019050908152602001604051809103902081905550620003e0565b828054600181600116156101000203166002900490600052602060002090601f016020900481019282601f106200037457805160ff1916838001178555620003a5565b82800160010185558215620003a5579182015b82811115620003a457825182559160200191906001019062000387565b5b509050620003b49190620003b8565b5090565b620003dd91905b80821115620003d9576000816000905550600101620003bf565b5090565b90565b61719f80620003f06000396000f3fe608060405234801561001057600080fd5b50600436106101da5760003560e01c80638b72015011610104578063b461a536116100a2578063eddaa2a411610071578063eddaa2a414610cf2578063f6daa08b14610ddd578063f860c7c614610ec8578063fbd0c4681461100e576101da565b8063b461a53614610afb578063b898de7914610be3578063c5cbc0de14610c1a578063e792678814610c48576101da565b80639d7d1605116100de5780639d7d1605146109da578063a2ccfc51146109e4578063a869698314610a12578063b0a0b9ce14610acd576101da565b80638b720150146108225780639632e606146108505780639961b3c21461087e576101da565b806349ee739a1161017c5780635e4018911161014b5780635e4018911461068257806360fbfa45146107255780636eb643e5146107535780637e7e7c5c1461075d576101da565b806349ee739a1461043f5780634a05dbdd1461044957806352a11a6e146105145780635d8d1585146105be576101da565b806332ba04d8116101b857806332ba04d8146102695780633b51977e1461032e57806341ac4138146103385780634278152514610407576101da565b80631bd65fa5146101df57806323a61ea81461020d57806327e6cbcc1461023b575b600080fd5b61020b600480360360208110156101f557600080fd5b810190808035906020019092919050505061103c565b005b6102396004803603602081101561022357600080fd5b81019080803590602001909291905050506116bb565b005b6102676004803603602081101561025157600080fd5b810190808035906020019092919050505061199f565b005b61032c6004803603604081101561027f57600080fd5b8101908080359060200190929190803590602001906401000000008111156102a657600080fd5b8201836020820111156102b857600080fd5b803590602001918460018302840111640100000000831117156102da57600080fd5b91908080601f016020809104026020016040519081016040528093929190818152602001838380828437600081840152601f19601f820116905080830192505050505050509192919290505050611c40565b005b610336611dfd565b005b6104056004803603606081101561034e57600080fd5b810190808035906020019064010000000081111561036b57600080fd5b82018360208201111561037d57600080fd5b8035906020019184600183028401116401000000008311171561039f57600080fd5b91908080601f016020809104026020016040519081016040528093929190818152602001838380828437600081840152601f19601f82011690508083019250505050505050919291929080359060200190929190803590602001909291905050506120e9565b005b61043d6004803603604081101561041d57600080fd5b8101908080359060200190929190803590602001909291905050506123c2565b005b61044761266f565b005b61045161293e565b60405180868152602001858152602001806020018481526020018373ffffffffffffffffffffffffffffffffffffffff1673ffffffffffffffffffffffffffffffffffffffff168152602001828103825285818151815260200191508051906020019080838360005b838110156104d55780820151818401526020810190506104ba565b50505050905090810190601f1680156105025780820380516001836020036101000a031916815260200191505b50965050505050505060405180910390f35b61051c612c01565b604051808781526020018681526020018060200185815260200184815260200183151515158152602001828103825286818151815260200191508051906020019080838360005b8381101561057e578082015181840152602081019050610563565b50505050905090810190601f1680156105ab5780820380516001836020036101000a031916815260200191505b5097505050505050505060405180910390f35b6105c6612f00565b60405180858152602001806020018473ffffffffffffffffffffffffffffffffffffffff1673ffffffffffffffffffffffffffffffffffffffff168152602001838152602001828103825285818151815260200191508051906020019080838360005b83811015610644578082015181840152602081019050610629565b50505050905090810190601f1680156106715780820380516001836020036101000a031916815260200191505b509550505050505060405180910390f35b61068a6131e2565b604051808681526020018581526020018481526020018060200183151515158152602001828103825284818151815260200191508051906020019080838360005b838110156106e65780820151818401526020810190506106cb565b50505050905090810190601f1680156107135780820380516001836020036101000a031916815260200191505b50965050505050505060405180910390f35b6107516004803603602081101561073b57600080fd5b810190808035906020019092919050505061349a565b005b61075b6136d0565b005b6108206004803603604081101561077357600080fd5b810190808035906020019064010000000081111561079057600080fd5b8201836020820111156107a257600080fd5b803590602001918460018302840111640100000000831117156107c457600080fd5b91908080601f016020809104026020016040519081016040528093929190818152602001838380828437600081840152601f19601f8201169050808301925050505050505091929192908035906020019092919050505061393b565b005b61084e6004803603602081101561083857600080fd5b8101908080359060200190929190505050613e4c565b005b61087c6004803603602081101561086657600080fd5b8101908080359060200190929190505050613fd1565b005b6109d86004803603606081101561089457600080fd5b8101908080359060200190929190803590602001906401000000008111156108bb57600080fd5b8201836020820111156108cd57600080fd5b803590602001918460018302840111640100000000831117156108ef57600080fd5b91908080601f016020809104026020016040519081016040528093929190818152602001838380828437600081840152601f19601f8201169050808301925050505050505091929192908035906020019064010000000081111561095257600080fd5b82018360208201111561096457600080fd5b8035906020019184600183028401116401000000008311171561098657600080fd5b91908080601f016020809104026020016040519081016040528093929190818152602001838380828437600081840152601f19601f8201169050808301925050505050505091929192905050506144cd565b005b6109e2614831565b005b610a10600480360360208110156109fa57600080fd5b8101908080359060200190929190505050614c34565b005b610acb60048036036020811015610a2857600080fd5b8101908080359060200190640100000000811115610a4557600080fd5b820183602082011115610a5757600080fd5b80359060200191846001830284011164010000000083111715610a7957600080fd5b91908080601f016020809104026020016040519081016040528093929190818152602001838380828437600081840152601f19601f820116905080830192505050505050509192919290505050614ec7565b005b610af960048036036020811015610ae357600080fd5b8101908080359060200190929190505050615593565b005b610b0361581d565b60405180898152602001888152602001806020018781526020018681526020018573ffffffffffffffffffffffffffffffffffffffff1673ffffffffffffffffffffffffffffffffffffffff1681526020018415151515815260200183151515158152602001828103825288818151815260200191508051906020019080838360005b83811015610ba1578082015181840152602081019050610b86565b50505050905090810190601f168015610bce5780820380516001836020036101000a031916815260200191505b50995050505050505050505060405180910390f35b610beb615b58565b604051808581526020018481526020018381526020018215151515815260200194505050505060405180910390f35b610c4660048036036020811015610c3057600080fd5b8101908080359060200190929190505050615d32565b005b610c50615ec9565b604051808781526020018681526020018060200185815260200184815260200183151515158152602001828103825286818151815260200191508051906020019080838360005b83811015610cb2578082015181840152602081019050610c97565b50505050905090810190601f168015610cdf5780820380516001836020036101000a031916815260200191505b5097505050505050505060405180910390f35b610cfa61611a565b604051808a8152602001806020018981526020018881526020018781526020018681526020018581526020018473ffffffffffffffffffffffffffffffffffffffff1673ffffffffffffffffffffffffffffffffffffffff1681526020018315151515815260200182810382528a818151815260200191508051906020019080838360005b83811015610d9a578082015181840152602081019050610d7f565b50505050905090810190601f168015610dc75780820380516001836020036101000a031916815260200191505b509a505050505050505050505060405180910390f35b610de56163f9565b604051808a8152602001806020018981526020018881526020018781526020018681526020018581526020018473ffffffffffffffffffffffffffffffffffffffff1673ffffffffffffffffffffffffffffffffffffffff1681526020018315151515815260200182810382528a818151815260200191508051906020019080838360005b83811015610e85578082015181840152602081019050610e6a565b50505050905090810190601f168015610eb25780820380516001836020036101000a031916815260200191505b509a505050505050505050505060405180910390f35b610ed06169bf565b6040518088815260200187815260200180602001806020018673ffffffffffffffffffffffffffffffffffffffff1673ffffffffffffffffffffffffffffffffffffffff1681526020018515151515815260200184151515158152602001838103835288818151815260200191508051906020019080838360005b83811015610f66578082015181840152602081019050610f4b565b50505050905090810190601f168015610f935780820380516001836020036101000a031916815260200191505b50838103825287818151815260200191508051906020019080838360005b83811015610fcc578082015181840152602081019050610fb1565b50505050905090810190601f168015610ff95780820380516001836020036101000a031916815260200191505b50995050505050505050505060405180910390f35b61103a6004803603602081101561102457600080fd5b8101908080359060200190929190505050616d37565b005b6000600d60003373ffffffffffffffffffffffffffffffffffffffff1673ffffffffffffffffffffffffffffffffffffffff16815260200190815260200160002060030154146110f4576040517f08c379a00000000000000000000000000000000000000000000000000000000081526004018080602001828103825260188152602001807f596f7520617265206e6f7420696e2055736572206d6f6465000000000000000081525060200191505060405180910390fd5b600d60003373ffffffffffffffffffffffffffffffffffffffff1673ffffffffffffffffffffffffffffffffffffffff16815260200190815260200160002060020160009054906101000a900473ffffffffffffffffffffffffffffffffffffffff1673ffffffffffffffffffffffffffffffffffffffff166001600d60003373ffffffffffffffffffffffffffffffffffffffff1673ffffffffffffffffffffffffffffffffffffffff16815260200190815260200160002060000154815481106111bc57fe5b906000526020600020906008020160070160009054906101000a900473ffffffffffffffffffffffffffffffffffffffff1673ffffffffffffffffffffffffffffffffffffffff16141561125b576040517f08c379a000000000000000000000000000000000000000000000000000000000815260040180806020018281038252602c815260200180617057602c913960400191505060405180910390fd5b600d60003373ffffffffffffffffffffffffffffffffffffffff1673ffffffffffffffffffffffffffffffffffffffff1681526020019081526020016000206001016001600d60003373ffffffffffffffffffffffffffffffffffffffff1673ffffffffffffffffffffffffffffffffffffffff16815260200190815260200160002060000154815481106112ec57fe5b9060005260206000209060080201600101908054600181600116156101000203166002900461131c929190616e89565b50806001600d60003373ffffffffffffffffffffffffffffffffffffffff1673ffffffffffffffffffffffffffffffffffffffff168152602001908152602001600020600001548154811061136d57fe5b906000526020600020906008020160030181905550600d60003373ffffffffffffffffffffffffffffffffffffffff1673ffffffffffffffffffffffffffffffffffffffff16815260200190815260200160002060020160009054906101000a900473ffffffffffffffffffffffffffffffffffffffff166001600d60003373ffffffffffffffffffffffffffffffffffffffff1673ffffffffffffffffffffffffffffffffffffffff168152602001908152602001600020600001548154811061143457fe5b906000526020600020906008020160070160006101000a81548173ffffffffffffffffffffffffffffffffffffffff021916908373ffffffffffffffffffffffffffffffffffffffff1602179055506003604051806101000160405280600d60003373ffffffffffffffffffffffffffffffffffffffff1673ffffffffffffffffffffffffffffffffffffffff168152602001908152602001600020600001548152602001600081526020016040518060400160405280600481526020017f6e756c6c0000000000000000000000000000000000000000000000000000000081525081526020016040518060400160405280600481526020017f6e756c6c000000000000000000000000000000000000000000000000000000008152508152602001600960009054906101000a900473ffffffffffffffffffffffffffffffffffffffff1673ffffffffffffffffffffffffffffffffffffffff16815260200160008152602001600015158152602001600015158152509080600181540180825580915050906001820390600052602060002090600702016000909192909190915060008201518160000155602082015181600101556040820151816002019080519060200190611606929190616f10565b506060820151816003019080519060200190611623929190616f10565b5060808201518160040160006101000a81548173ffffffffffffffffffffffffffffffffffffffff021916908373ffffffffffffffffffffffffffffffffffffffff16021790555060a0820151816005015560c08201518160060160006101000a81548160ff02191690831515021790555060e08201518160060160016101000a81548160ff02191690831515021790555050505050565b600a60009054906101000a900473ffffffffffffffffffffffffffffffffffffffff1673ffffffffffffffffffffffffffffffffffffffff163373ffffffffffffffffffffffffffffffffffffffff161461177e576040517f08c379a00000000000000000000000000000000000000000000000000000000081526004018080602001828103825260188152602001807f596f7520617265206e6f7420616e20696e737572616e6365000000000000000081525060200191505060405180910390fd5b600015156005828154811061178f57fe5b906000526020600020906006020160050160149054906101000a900460ff161515146117ba57600080fd5b60001515600582815481106117cb57fe5b906000526020600020906006020160050160159054906101000a900460ff161515146117f657600080fd5b60016005828154811061180557fe5b906000526020600020906006020160050160146101000a81548160ff02191690831515021790555060016005828154811061183c57fe5b9060005260206000209060060201600101548154811061185857fe5b9060005260206000209060080201600301546301e13380428161187757fe5b040360020260016005838154811061188b57fe5b906000526020600020906006020160010154815481106118a757fe5b9060005260206000209060080201600401546001600584815481106118c857fe5b906000526020600020906006020160010154815481106118e457fe5b90600052602060002090600802016005015460020260046005858154811061190857fe5b9060005260206000209060060201600301548154811061192457fe5b90600052602060002090600602016003015460010360046005868154811061194857fe5b9060005260206000209060060201600301548154811061196457fe5b906000526020600020906006020160040154020101036005828154811061198757fe5b90600052602060002090600602016004018190555050565b600860009054906101000a900473ffffffffffffffffffffffffffffffffffffffff1673ffffffffffffffffffffffffffffffffffffffff163373ffffffffffffffffffffffffffffffffffffffff1614611a62576040517f08c379a00000000000000000000000000000000000000000000000000000000081526004018080602001828103825260118152602001807f596f7520617265206e6f742061646d696e00000000000000000000000000000081525060200191505060405180910390fd5b600960009054906101000a900473ffffffffffffffffffffffffffffffffffffffff1673ffffffffffffffffffffffffffffffffffffffff1660028281548110611aa857fe5b906000526020600020906003020160020160009054906101000a900473ffffffffffffffffffffffffffffffffffffffff1673ffffffffffffffffffffffffffffffffffffffff1614611b46576040517f08c379a00000000000000000000000000000000000000000000000000000000081526004018080602001828103825260218152602001806170366021913960400191505060405180910390fd5b60008181548110611b5357fe5b906000526020600020906004020160010160028281548110611b7157fe5b90600052602060002090600302016001019080546001816001161561010002031660029004611ba1929190616e89565b5060008181548110611baf57fe5b906000526020600020906004020160020160009054906101000a900473ffffffffffffffffffffffffffffffffffffffff1660028281548110611bee57fe5b906000526020600020906003020160020160006101000a81548173ffffffffffffffffffffffffffffffffffffffff021916908373ffffffffffffffffffffffffffffffffffffffff16021790555050565b6002600d60003373ffffffffffffffffffffffffffffffffffffffff1673ffffffffffffffffffffffffffffffffffffffff1681526020019081526020016000206003015414611cf8576040517f08c379a00000000000000000000000000000000000000000000000000000000081526004018080602001828103825260198152602001807f596f7520617265206e6f74206120445053206f6666696365720000000000000081525060200191505060405180910390fd5b60066040518060c00160405280600680549050815260200184815260200160018581548110611d2357fe5b906000526020600020906008020160020154815260200183815260200160001515815260200160001515815250908060018154018082558091505090600182039060005260206000209060050201600090919290919091506000820151816000015560208201518160010155604082015181600201556060820151816003019080519060200190611db5929190616f10565b5060808201518160040160006101000a81548160ff02191690831515021790555060a08201518160040160016101000a81548160ff0219169083151502179055505050505050565b600d60003373ffffffffffffffffffffffffffffffffffffffff1673ffffffffffffffffffffffffffffffffffffffff16815260200190815260200160002060020160009054906101000a900473ffffffffffffffffffffffffffffffffffffffff1673ffffffffffffffffffffffffffffffffffffffff166002600d60003373ffffffffffffffffffffffffffffffffffffffff1673ffffffffffffffffffffffffffffffffffffffff1681526020019081526020016000206000015481548110611ec557fe5b906000526020600020906003020160020160009054906101000a900473ffffffffffffffffffffffffffffffffffffffff1673ffffffffffffffffffffffffffffffffffffffff1614611f80576040517f08c379a00000000000000000000000000000000000000000000000000000000081526004018080602001828103825260178152602001807f596f7520617265206e6f7420445053206f66666963657200000000000000000081525060200191505060405180910390fd5b6002600d60003373ffffffffffffffffffffffffffffffffffffffff1673ffffffffffffffffffffffffffffffffffffffff168152602001908152602001600020600301541415612039576040517f08c379a000000000000000000000000000000000000000000000000000000000815260040180806020018281038252601b8152602001807f596f752061726520616c726561647920696e20445053206d6f6465000000000081525060200191505060405180910390fd5b60026000600d60003373ffffffffffffffffffffffffffffffffffffffff1673ffffffffffffffffffffffffffffffffffffffff168152602001908152602001600020600001548154811061208a57fe5b9060005260206000209060040201600301819055506002600d60003373ffffffffffffffffffffffffffffffffffffffff1673ffffffffffffffffffffffffffffffffffffffff16815260200190815260200160002060030181905550565b6001600d60003373ffffffffffffffffffffffffffffffffffffffff1673ffffffffffffffffffffffffffffffffffffffff16815260200190815260200160002060030154146121a1576040517f08c379a000000000000000000000000000000000000000000000000000000000815260040180806020018281038252601a8152602001807f596f7520617265206e6f7420696e20447269766572206d6f646500000000000081525060200191505060405180910390fd5b600115156003600d60003373ffffffffffffffffffffffffffffffffffffffff1673ffffffffffffffffffffffffffffffffffffffff16815260200190815260200160002060000154815481106121f457fe5b906000526020600020906007020160060160009054906101000a900460ff16151514612288576040517f08c379a00000000000000000000000000000000000000000000000000000000081526004018080602001828103825260178152602001807f4c6963656e7365206973206e6f7420766572696669656400000000000000000081525060200191505060405180910390fd5b60046040518060e001604052806004805490508152602001600d60003373ffffffffffffffffffffffffffffffffffffffff1673ffffffffffffffffffffffffffffffffffffffff168152602001908152602001600020600001548152602001858152602001848152602001838152602001600015158152602001600015158152509080600181540180825580915050906001820390600052602060002090600602016000909192909190915060008201518160000155602082015181600101556040820151816002019080519060200190612365929190616f10565b50606082015181600301556080820151816004015560a08201518160050160006101000a81548160ff02191690831515021790555060c08201518160050160016101000a81548160ff021916908315150217905550505050505050565b600a60009054906101000a900473ffffffffffffffffffffffffffffffffffffffff1673ffffffffffffffffffffffffffffffffffffffff163373ffffffffffffffffffffffffffffffffffffffff1614612485576040517f08c379a00000000000000000000000000000000000000000000000000000000081526004018080602001828103825260188152602001807f596f7520617265206e6f7420616e20696e737572616e6365000000000000000081525060200191505060405180910390fd5b600115156006838154811061249657fe5b906000526020600020906005020160040160009054906101000a900460ff1615151461250d576040517f08c379a00000000000000000000000000000000000000000000000000000000081526004018080602001828103825260238152602001806171216023913960400191505060405180910390fd5b60016006838154811061251c57fe5b9060005260206000209060050201600101548154811061253857fe5b906000526020600020906008020160070160009054906101000a900473ffffffffffffffffffffffffffffffffffffffff1673ffffffffffffffffffffffffffffffffffffffff166108fc6005838154811061259057fe5b9060005260206000209060060201600401549081150290604051600060405180830381858888f193505050501580156125cd573d6000803e3d6000fd5b50600581815481106125db57fe5b9060005260206000209060060201600401546001600684815481106125fc57fe5b9060005260206000209060050201600101548154811061261857fe5b9060005260206000209060080201600601540160016006848154811061263a57fe5b9060005260206000209060050201600101548154811061265657fe5b9060005260206000209060080201600601819055505050565b600d60003373ffffffffffffffffffffffffffffffffffffffff1673ffffffffffffffffffffffffffffffffffffffff16815260200190815260200160002060020160009054906101000a900473ffffffffffffffffffffffffffffffffffffffff1673ffffffffffffffffffffffffffffffffffffffff166001600d60003373ffffffffffffffffffffffffffffffffffffffff1673ffffffffffffffffffffffffffffffffffffffff168152602001908152602001600020600001548154811061273757fe5b906000526020600020906008020160070160009054906101000a900473ffffffffffffffffffffffffffffffffffffffff1673ffffffffffffffffffffffffffffffffffffffff16146127d5576040517f08c379a00000000000000000000000000000000000000000000000000000000081526004018080602001828103825260288152602001806170836028913960400191505060405180910390fd5b6001600d60003373ffffffffffffffffffffffffffffffffffffffff1673ffffffffffffffffffffffffffffffffffffffff16815260200190815260200160002060030154141561288e576040517f08c379a000000000000000000000000000000000000000000000000000000000815260040180806020018281038252601e8152602001807f596f752061726520616c726561647920696e20447269766572206d6f6465000081525060200191505060405180910390fd5b60016000600d60003373ffffffffffffffffffffffffffffffffffffffff1673ffffffffffffffffffffffffffffffffffffffff16815260200190815260200160002060000154815481106128df57fe5b9060005260206000209060040201600301819055506001600d60003373ffffffffffffffffffffffffffffffffffffffff1673ffffffffffffffffffffffffffffffffffffffff16815260200190815260200160002060030181905550565b6000806060600080600a60009054906101000a900473ffffffffffffffffffffffffffffffffffffffff1673ffffffffffffffffffffffffffffffffffffffff163373ffffffffffffffffffffffffffffffffffffffff1614612a09576040517f08c379a00000000000000000000000000000000000000000000000000000000081526004018080602001828103825260188152602001807f596f7520617265206e6f7420616e20696e737572616e6365000000000000000081525060200191505060405180910390fd5b60008090506005805490508111612bf8576000151560058281548110612a2b57fe5b906000526020600020906006020160050160149054906101000a900460ff16151514612a5657600080fd5b6000151560058281548110612a6757fe5b906000526020600020906006020160050160159054906101000a900460ff16151514612a9257600080fd5b60058181548110612a9f57fe5b90600052602060002090600602016000015460058281548110612abe57fe5b90600052602060002090600602016001015460058381548110612add57fe5b906000526020600020906006020160020160058481548110612afb57fe5b90600052602060002090600602016003015460058581548110612b1a57fe5b906000526020600020906006020160050160009054906101000a900473ffffffffffffffffffffffffffffffffffffffff16828054600181600116156101000203166002900480601f016020809104026020016040519081016040528092919081815260200182805460018160011615610100020316600290048015612be15780601f10612bb657610100808354040283529160200191612be1565b820191906000526020600020905b815481529060010190602001808311612bc457829003601f168201915b505050505092509550955095509550955050612bfa565b505b9091929394565b600080606060008060006001600d60003373ffffffffffffffffffffffffffffffffffffffff1673ffffffffffffffffffffffffffffffffffffffff1681526020019081526020016000206003015414612cc3576040517f08c379a000000000000000000000000000000000000000000000000000000000815260040180806020018281038252601a8152602001807f596f7520617265206e6f7420696e20447269766572206d6f646500000000000081525060200191505060405180910390fd5b600d60003373ffffffffffffffffffffffffffffffffffffffff1673ffffffffffffffffffffffffffffffffffffffff168152602001908152602001600020600001546004600d60003373ffffffffffffffffffffffffffffffffffffffff1673ffffffffffffffffffffffffffffffffffffffff1681526020019081526020016000206000015481548110612d5557fe5b90600052602060002090600602016001015414612d7157600080fd5b60008090506004805490508111612ef65760048181548110612d8f57fe5b90600052602060002090600602016000015460048281548110612dae57fe5b90600052602060002090600602016001015460048381548110612dcd57fe5b906000526020600020906006020160020160048481548110612deb57fe5b90600052602060002090600602016003015460048581548110612e0a57fe5b90600052602060002090600602016004015460048681548110612e2957fe5b906000526020600020906006020160050160009054906101000a900460ff16838054600181600116156101000203166002900480601f016020809104026020016040519081016040528092919081815260200182805460018160011615610100020316600290048015612edd5780601f10612eb257610100808354040283529160200191612edd565b820191906000526020600020905b815481529060010190602001808311612ec057829003601f168201915b5050505050935096509650965096509650965050612ef8565b505b909192939495565b600060606000803373ffffffffffffffffffffffffffffffffffffffff16600d60003373ffffffffffffffffffffffffffffffffffffffff1673ffffffffffffffffffffffffffffffffffffffff16815260200190815260200160002060020160009054906101000a900473ffffffffffffffffffffffffffffffffffffffff1673ffffffffffffffffffffffffffffffffffffffff161461300a576040517f08c379a00000000000000000000000000000000000000000000000000000000081526004018080602001828103825260168152602001807f596f7520617265206e6f7420726567697374657265640000000000000000000081525060200191505060405180910390fd5b600d60003373ffffffffffffffffffffffffffffffffffffffff1673ffffffffffffffffffffffffffffffffffffffff16815260200190815260200160002060000154600d60003373ffffffffffffffffffffffffffffffffffffffff1673ffffffffffffffffffffffffffffffffffffffff168152602001908152602001600020600101600d60003373ffffffffffffffffffffffffffffffffffffffff1673ffffffffffffffffffffffffffffffffffffffff16815260200190815260200160002060020160009054906101000a900473ffffffffffffffffffffffffffffffffffffffff16600d60003373ffffffffffffffffffffffffffffffffffffffff1673ffffffffffffffffffffffffffffffffffffffff16815260200190815260200160002060030154828054600181600116156101000203166002900480601f0160208091040260200160405190810160405280929190818152602001828054600181600116156101000203166002900480156131ca5780601f1061319f576101008083540402835291602001916131ca565b820191906000526020600020905b8154815290600101906020018083116131ad57829003601f168201915b50505050509250819150935093509350935090919293565b6000806000606060006001600d60003373ffffffffffffffffffffffffffffffffffffffff1673ffffffffffffffffffffffffffffffffffffffff16815260200190815260200160002060030154146132a3576040517f08c379a000000000000000000000000000000000000000000000000000000000815260040180806020018281038252601a8152602001807f596f7520617265206e6f7420696e20447269766572206d6f646500000000000081525060200191505060405180910390fd5b60008090506006805490508111613491576001600d60003373ffffffffffffffffffffffffffffffffffffffff1673ffffffffffffffffffffffffffffffffffffffff168152602001908152602001600020600001548154811061330357fe5b9060005260206000209060080201600201546006828154811061332257fe5b9060005260206000209060050201600201541461333e57600080fd5b6006818154811061334b57fe5b9060005260206000209060050201600001546006828154811061336a57fe5b9060005260206000209060050201600101546006838154811061338957fe5b906000526020600020906005020160020154600684815481106133a857fe5b9060005260206000209060050201600301600685815481106133c657fe5b906000526020600020906005020160040160009054906101000a900460ff16818054600181600116156101000203166002900480601f01602080910402602001604051908101604052809291908181526020018280546001816001161561010002031660029004801561347a5780601f1061344f5761010080835404028352916020019161347a565b820191906000526020600020905b81548152906001019060200180831161345d57829003601f168201915b505050505091509550955095509550955050613493565b505b9091929394565b6002600d60003373ffffffffffffffffffffffffffffffffffffffff1673ffffffffffffffffffffffffffffffffffffffff1681526020019081526020016000206003015414613552576040517f08c379a00000000000000000000000000000000000000000000000000000000081526004018080602001828103825260198152602001807f596f7520617265206e6f74206120445053206f6666696365720000000000000081525060200191505060405180910390fd5b600015156003828154811061356357fe5b906000526020600020906007020160060160009054906101000a900460ff161515146135f7576040517f08c379a000000000000000000000000000000000000000000000000000000000815260040180806020018281038252601b8152602001807f4c6963656e736520697320616c7265616479207665726966696564000000000081525060200191505060405180910390fd5b60016003828154811061360657fe5b906000526020600020906007020160060160006101000a81548160ff02191690831515021790555060016003828154811061363d57fe5b906000526020600020906007020160060160016101000a81548160ff0219169083151502179055506003818154811061367257fe5b9060005260206000209060070201600101546001828154811061369157fe5b90600052602060002090600802016002018190555061474a4201600382815481106136b857fe5b90600052602060002090600702016005018190555050565b3373ffffffffffffffffffffffffffffffffffffffff16600d60003373ffffffffffffffffffffffffffffffffffffffff1673ffffffffffffffffffffffffffffffffffffffff16815260200190815260200160002060020160009054906101000a900473ffffffffffffffffffffffffffffffffffffffff1673ffffffffffffffffffffffffffffffffffffffff16146137d3576040517f08c379a00000000000000000000000000000000000000000000000000000000081526004018080602001828103825260178152602001807f596f752068617665206e6f74207265676973746572656400000000000000000081525060200191505060405180910390fd5b6000600d60003373ffffffffffffffffffffffffffffffffffffffff1673ffffffffffffffffffffffffffffffffffffffff16815260200190815260200160002060030154141561388c576040517f08c379a000000000000000000000000000000000000000000000000000000000815260040180806020018281038252601c8152602001807f596f752061726520616c726561647920696e2055736572206d6f64650000000081525060200191505060405180910390fd5b600080600d60003373ffffffffffffffffffffffffffffffffffffffff1673ffffffffffffffffffffffffffffffffffffffff16815260200190815260200160002060000154815481106138dc57fe5b9060005260206000209060040201600301819055506000600d60003373ffffffffffffffffffffffffffffffffffffffff1673ffffffffffffffffffffffffffffffffffffffff16815260200190815260200160002060030181905550565b6001600d60003373ffffffffffffffffffffffffffffffffffffffff1673ffffffffffffffffffffffffffffffffffffffff16815260200190815260200160002060030154146139f3576040517f08c379a000000000000000000000000000000000000000000000000000000000815260040180806020018281038252601a8152602001807f596f7520617265206e6f7420696e20447269766572206d6f646500000000000081525060200191505060405180910390fd5b600115156003600d60003373ffffffffffffffffffffffffffffffffffffffff1673ffffffffffffffffffffffffffffffffffffffff1681526020019081526020016000206000015481548110613a4657fe5b906000526020600020906007020160060160019054906101000a900460ff16151514613ada576040517f08c379a000000000000000000000000000000000000000000000000000000000815260040180806020018281038252601d8152602001807f44726976657273206c6963656e7365206973206e6f742061637469766500000081525060200191505060405180910390fd5b600015156001600d60003373ffffffffffffffffffffffffffffffffffffffff1673ffffffffffffffffffffffffffffffffffffffff1681526020019081526020016000206000015481548110613b2d57fe5b906000526020600020906008020160070160149054906101000a900460ff16151514613ba4576040517f08c379a00000000000000000000000000000000000000000000000000000000081526004018080602001828103825260278152602001806170cc6027913960400191505060405180910390fd5b600d60003373ffffffffffffffffffffffffffffffffffffffff1673ffffffffffffffffffffffffffffffffffffffff1681526020019081526020016000206000015460048281548110613bf457fe5b90600052602060002090600602016001015414613c1057600080fd5b6001151560048281548110613c2157fe5b906000526020600020906006020160050160009054906101000a900460ff16151514613c4c57600080fd5b60056040518061010001604052806005805490508152602001600d60003373ffffffffffffffffffffffffffffffffffffffff1673ffffffffffffffffffffffffffffffffffffffff16815260200190815260200160002060000154815260200184815260200183815260200160008152602001600d60003373ffffffffffffffffffffffffffffffffffffffff1673ffffffffffffffffffffffffffffffffffffffff16815260200190815260200160002060020160009054906101000a900473ffffffffffffffffffffffffffffffffffffffff1673ffffffffffffffffffffffffffffffffffffffff168152602001600015158152602001600015158152509080600181540180825580915050906001820390600052602060002090600602016000909192909190915060008201518160000155602082015181600101556040820151816002019080519060200190613da9929190616f10565b50606082015181600301556080820151816004015560a08201518160050160006101000a81548173ffffffffffffffffffffffffffffffffffffffff021916908373ffffffffffffffffffffffffffffffffffffffff16021790555060c08201518160050160146101000a81548160ff02191690831515021790555060e08201518160050160156101000a81548160ff0219169083151502179055505050505050565b6002600d60003373ffffffffffffffffffffffffffffffffffffffff1673ffffffffffffffffffffffffffffffffffffffff1681526020019081526020016000206003015414613f04576040517f08c379a00000000000000000000000000000000000000000000000000000000081526004018080602001828103825260198152602001807f596f7520617265206e6f74206120445053206f6666696365720000000000000081525060200191505060405180910390fd5b60038181548110613f1157fe5b9060005260206000209060070201600501544211613f97576040517f08c379a00000000000000000000000000000000000000000000000000000000081526004018080602001828103825260178152602001807f546f6f206561726c7920746f206465616374697661746500000000000000000081525060200191505060405180910390fd5b600060038281548110613fa657fe5b906000526020600020906007020160060160016101000a81548160ff02191690831515021790555050565b6001600d60003373ffffffffffffffffffffffffffffffffffffffff1673ffffffffffffffffffffffffffffffffffffffff1681526020019081526020016000206003015414614089576040517f08c379a000000000000000000000000000000000000000000000000000000000815260040180806020018281038252601a8152602001807f596f7520617265206e6f7420696e20447269766572206d6f646500000000000081525060200191505060405180910390fd5b6005818154811061409657fe5b906000526020600020906006020160050160009054906101000a900473ffffffffffffffffffffffffffffffffffffffff1673ffffffffffffffffffffffffffffffffffffffff163373ffffffffffffffffffffffffffffffffffffffff161461414b576040517f08c379a00000000000000000000000000000000000000000000000000000000081526004018080602001828103825260278152602001806171446027913960400191505060405180910390fd5b600115156005828154811061415c57fe5b906000526020600020906006020160050160149054906101000a900460ff161515146141d3576040517f08c379a00000000000000000000000000000000000000000000000000000000081526004018080602001828103825260218152602001806170ab6021913960400191505060405180910390fd5b60001515600582815481106141e457fe5b906000526020600020906006020160050160159054906101000a900460ff16151514614278576040517f08c379a000000000000000000000000000000000000000000000000000000000815260040180806020018281038252601e8152602001807f496e737572616e63652066656520697320616c7265616479207061796564000081525060200191505060405180910390fd5b600a60009054906101000a900473ffffffffffffffffffffffffffffffffffffffff1673ffffffffffffffffffffffffffffffffffffffff166108fc600583815481106142c157fe5b9060005260206000209060060201600401549081150290604051600060405180830381858888f193505050501580156142fe573d6000803e3d6000fd5b506005818154811061430c57fe5b9060005260206000209060060201600401546001600d60003373ffffffffffffffffffffffffffffffffffffffff1673ffffffffffffffffffffffffffffffffffffffff168152602001908152602001600020600001548154811061436d57fe5b906000526020600020906008020160060154036001600d60003373ffffffffffffffffffffffffffffffffffffffff1673ffffffffffffffffffffffffffffffffffffffff16815260200190815260200160002060000154815481106143cf57fe5b9060005260206000209060080201600601819055506000600582815481106143f357fe5b906000526020600020906006020160050160146101000a81548160ff02191690831515021790555060016005828154811061442a57fe5b906000526020600020906006020160050160156101000a81548160ff021916908315150217905550600180600d60003373ffffffffffffffffffffffffffffffffffffffff1673ffffffffffffffffffffffffffffffffffffffff16815260200190815260200160002060000154815481106144a257fe5b906000526020600020906008020160070160146101000a81548160ff02191690831515021790555050565b6001600d60003373ffffffffffffffffffffffffffffffffffffffff1673ffffffffffffffffffffffffffffffffffffffff1681526020019081526020016000206003015414614585576040517f08c379a000000000000000000000000000000000000000000000000000000000815260040180806020018281038252601a8152602001807f596f7520617265206e6f7420696e20447269766572206d6f646500000000000081525060200191505060405180910390fd5b6003600d60003373ffffffffffffffffffffffffffffffffffffffff1673ffffffffffffffffffffffffffffffffffffffff16815260200190815260200160002060000154815481106145d457fe5b90600052602060002090600702016001015483141561463e576040517f08c379a000000000000000000000000000000000000000000000000000000000815260040180806020018281038252602e8152602001806170f3602e913960400191505060405180910390fd5b826003600d60003373ffffffffffffffffffffffffffffffffffffffff1673ffffffffffffffffffffffffffffffffffffffff168152602001908152602001600020600001548154811061468e57fe5b906000526020600020906007020160010181905550816003600d60003373ffffffffffffffffffffffffffffffffffffffff1673ffffffffffffffffffffffffffffffffffffffff16815260200190815260200160002060000154815481106146f357fe5b90600052602060002090600702016002019080519060200190614717929190616f90565b50806003600d60003373ffffffffffffffffffffffffffffffffffffffff1673ffffffffffffffffffffffffffffffffffffffff168152602001908152602001600020600001548154811061476857fe5b9060005260206000209060070201600301908051906020019061478c929190616f90565b50336003600d60003373ffffffffffffffffffffffffffffffffffffffff1673ffffffffffffffffffffffffffffffffffffffff16815260200190815260200160002060000154815481106147dd57fe5b906000526020600020906007020160040160006101000a81548173ffffffffffffffffffffffffffffffffffffffff021916908373ffffffffffffffffffffffffffffffffffffffff160217905550505050565b6001600d60003373ffffffffffffffffffffffffffffffffffffffff1673ffffffffffffffffffffffffffffffffffffffff16815260200190815260200160002060030154146148e9576040517f08c379a000000000000000000000000000000000000000000000000000000000815260040180806020018281038252601a8152602001807f596f7520617265206e6f7420696e20447269766572206d6f646500000000000081525060200191505060405180910390fd5b3373ffffffffffffffffffffffffffffffffffffffff166003600d60003373ffffffffffffffffffffffffffffffffffffffff1673ffffffffffffffffffffffffffffffffffffffff168152602001908152602001600020600001548154811061494f57fe5b906000526020600020906007020160040160009054906101000a900473ffffffffffffffffffffffffffffffffffffffff1673ffffffffffffffffffffffffffffffffffffffff1614614a0a576040517f08c379a00000000000000000000000000000000000000000000000000000000081526004018080602001828103825260208152602001807f596f7520646f6e2774206861766520612064726976657273206c6963656e736581525060200191505060405180910390fd5b600115156003600d60003373ffffffffffffffffffffffffffffffffffffffff1673ffffffffffffffffffffffffffffffffffffffff1681526020019081526020016000206000015481548110614a5d57fe5b906000526020600020906007020160060160019054906101000a900460ff16151514614af1576040517f08c379a00000000000000000000000000000000000000000000000000000000081526004018080602001828103825260158152602001807f4c6963656e7365206973206e6f7420616374697665000000000000000000000081525060200191505060405180910390fd5b60966003600d60003373ffffffffffffffffffffffffffffffffffffffff1673ffffffffffffffffffffffffffffffffffffffff1681526020019081526020016000206000015481548110614b4257fe5b906000526020600020906007020160050154034211614bc9576040517f08c379a00000000000000000000000000000000000000000000000000000000081526004018080602001828103825260138152602001807f546f6f206561726c7920746f20657870616e640000000000000000000000000081525060200191505060405180910390fd5b61474a42016003600d60003373ffffffffffffffffffffffffffffffffffffffff1673ffffffffffffffffffffffffffffffffffffffff1681526020019081526020016000206000015481548110614c1d57fe5b906000526020600020906007020160050181905550565b6001600d60003373ffffffffffffffffffffffffffffffffffffffff1673ffffffffffffffffffffffffffffffffffffffff1681526020019081526020016000206003015414614cec576040517f08c379a000000000000000000000000000000000000000000000000000000000815260040180806020018281038252601a8152602001807f596f7520617265206e6f7420696e20447269766572206d6f646500000000000081525060200191505060405180910390fd5b600d60003373ffffffffffffffffffffffffffffffffffffffff1673ffffffffffffffffffffffffffffffffffffffff1681526020019081526020016000206000015460078281548110614d3c57fe5b90600052602060002090600402016001015414614dc1576040517f08c379a00000000000000000000000000000000000000000000000000000000081526004018080602001828103825260148152602001807f546861742773206e6f7420796f75722066696e6500000000000000000000000081525060200191505060405180910390fd5b601960078281548110614dd057fe5b90600052602060002090600402016002015401421115614e5957600a60009054906101000a900473ffffffffffffffffffffffffffffffffffffffff1673ffffffffffffffffffffffffffffffffffffffff166108fc600a9081150290604051600060405180830381858888f19350505050158015614e53573d6000803e3d6000fd5b50614ec4565b600a60009054906101000a900473ffffffffffffffffffffffffffffffffffffffff1673ffffffffffffffffffffffffffffffffffffffff166108fc60059081150290604051600060405180830381858888f19350505050158015614ec2573d6000803e3d6000fd5b505b50565b600960009054906101000a900473ffffffffffffffffffffffffffffffffffffffff1673ffffffffffffffffffffffffffffffffffffffff16600d60003373ffffffffffffffffffffffffffffffffffffffff1673ffffffffffffffffffffffffffffffffffffffff16815260200190815260200160002060020160009054906101000a900473ffffffffffffffffffffffffffffffffffffffff1673ffffffffffffffffffffffffffffffffffffffff1614614fec576040517f08c379a000000000000000000000000000000000000000000000000000000000815260040180806020018281038252601a8152602001807f596f752061726520616c7265616479207265676973746572656400000000000081525060200191505060405180910390fd5b6000604051806080016040528060008054905081526020018381526020013373ffffffffffffffffffffffffffffffffffffffff16815260200160008152509080600181540180825580915050906001820390600052602060002090600402016000909192909190915060008201518160000155602082015181600101908051906020019061507c929190616f10565b5060408201518160020160006101000a81548173ffffffffffffffffffffffffffffffffffffffff021916908373ffffffffffffffffffffffffffffffffffffffff16021790555060608201518160030155505050600160008054905003600d60003373ffffffffffffffffffffffffffffffffffffffff1673ffffffffffffffffffffffffffffffffffffffff1681526020019081526020016000206000018190555080600d60003373ffffffffffffffffffffffffffffffffffffffff1673ffffffffffffffffffffffffffffffffffffffff1681526020019081526020016000206001019080519060200190615176929190616f90565b5033600d60003373ffffffffffffffffffffffffffffffffffffffff1673ffffffffffffffffffffffffffffffffffffffff16815260200190815260200160002060020160006101000a81548173ffffffffffffffffffffffffffffffffffffffff021916908373ffffffffffffffffffffffffffffffffffffffff1602179055506000600d60003373ffffffffffffffffffffffffffffffffffffffff1673ffffffffffffffffffffffffffffffffffffffff168152602001908152602001600020600301819055506001604051806101200160405280600d60003373ffffffffffffffffffffffffffffffffffffffff1673ffffffffffffffffffffffffffffffffffffffff1681526020019081526020016000206000015481526020016040518060400160405280600481526020017f6e756c6c0000000000000000000000000000000000000000000000000000000081525081526020016000815260200160008152602001600081526020016000815260200160008152602001600960009054906101000a900473ffffffffffffffffffffffffffffffffffffffff1673ffffffffffffffffffffffffffffffffffffffff168152602001600015158152509080600181540180825580915050906001820390600052602060002090600802016000909192909190915060008201518160000155602082015181600101908051906020019061538a929190616f10565b5060408201518160020155606082015181600301556080820151816004015560a0820151816005015560c0820151816006015560e08201518160070160006101000a81548173ffffffffffffffffffffffffffffffffffffffff021916908373ffffffffffffffffffffffffffffffffffffffff1602179055506101008201518160070160146101000a81548160ff02191690831515021790555050505060026040518060600160405280600d60003373ffffffffffffffffffffffffffffffffffffffff1673ffffffffffffffffffffffffffffffffffffffff1681526020019081526020016000206000015481526020016040518060400160405280600481526020017f6e756c6c000000000000000000000000000000000000000000000000000000008152508152602001600960009054906101000a900473ffffffffffffffffffffffffffffffffffffffff1673ffffffffffffffffffffffffffffffffffffffff1681525090806001815401808255809150509060018203906000526020600020906003020160009091929091909150600082015181600001556020820151816001019080519060200190615545929190616f10565b5060408201518160020160006101000a81548173ffffffffffffffffffffffffffffffffffffffff021916908373ffffffffffffffffffffffffffffffffffffffff16021790555050505050565b6001600d60003373ffffffffffffffffffffffffffffffffffffffff1673ffffffffffffffffffffffffffffffffffffffff168152602001908152602001600020600301541461564b576040517f08c379a000000000000000000000000000000000000000000000000000000000815260040180806020018281038252601a8152602001807f596f7520617265206e6f7420696e20447269766572206d6f646500000000000081525060200191505060405180910390fd5b6001600d60003373ffffffffffffffffffffffffffffffffffffffff1673ffffffffffffffffffffffffffffffffffffffff168152602001908152602001600020600001548154811061569a57fe5b906000526020600020906008020160020154600682815481106156b957fe5b9060005260206000209060050201600201541461573e576040517f08c379a000000000000000000000000000000000000000000000000000000000815260040180806020018281038252601b8152602001807f44726976657273206c6963656e736520636865636b206572726f72000000000081525060200191505060405180910390fd5b600015156006828154811061574f57fe5b906000526020600020906005020160040160009054906101000a900460ff161515146157e3576040517f08c379a000000000000000000000000000000000000000000000000000000000815260040180806020018281038252601d8152602001807f445450206361736520697320616c726561647920636f6e6669726d656400000081525060200191505060405180910390fd5b6001600682815481106157f257fe5b906000526020600020906005020160040160006101000a81548160ff02191690831515021790555050565b600080606060008060008060006001600d60003373ffffffffffffffffffffffffffffffffffffffff1673ffffffffffffffffffffffffffffffffffffffff16815260200190815260200160002060030154146158e2576040517f08c379a000000000000000000000000000000000000000000000000000000000815260040180806020018281038252601a8152602001807f596f7520617265206e6f7420696e20447269766572206d6f646500000000000081525060200191505060405180910390fd5b60008090506005805490508111615b4c573373ffffffffffffffffffffffffffffffffffffffff166005828154811061591757fe5b906000526020600020906006020160050160009054906101000a900473ffffffffffffffffffffffffffffffffffffffff1673ffffffffffffffffffffffffffffffffffffffff161461596957600080fd5b6005818154811061597657fe5b9060005260206000209060060201600001546005828154811061599557fe5b906000526020600020906006020160010154600583815481106159b457fe5b9060005260206000209060060201600201600584815481106159d257fe5b906000526020600020906006020160030154600585815481106159f157fe5b90600052602060002090600602016004015460058681548110615a1057fe5b906000526020600020906006020160050160009054906101000a900473ffffffffffffffffffffffffffffffffffffffff1660058781548110615a4f57fe5b906000526020600020906006020160050160149054906101000a900460ff1660058881548110615a7b57fe5b906000526020600020906006020160050160159054906101000a900460ff16858054600181600116156101000203166002900480601f016020809104026020016040519081016040528092919081815260200182805460018160011615610100020316600290048015615b2f5780601f10615b0457610100808354040283529160200191615b2f565b820191906000526020600020905b815481529060010190602001808311615b1257829003601f168201915b505050505095509850985098509850985098509850985050615b4e565b505b9091929394959697565b6000806000806001600d60003373ffffffffffffffffffffffffffffffffffffffff1673ffffffffffffffffffffffffffffffffffffffff1681526020019081526020016000206003015414615c16576040517f08c379a000000000000000000000000000000000000000000000000000000000815260040180806020018281038252601a8152602001807f596f7520617265206e6f7420696e20447269766572206d6f646500000000000081525060200191505060405180910390fd5b60008090506006805490508111615d2a57600d60003373ffffffffffffffffffffffffffffffffffffffff1673ffffffffffffffffffffffffffffffffffffffff1681526020019081526020016000206000015460078281548110615c7757fe5b90600052602060002090600402016001015414615c9357600080fd5b60078181548110615ca057fe5b90600052602060002090600402016000015460078281548110615cbf57fe5b90600052602060002090600402016001015460078381548110615cde57fe5b90600052602060002090600402016002015460078481548110615cfd57fe5b906000526020600020906004020160030160009054906101000a900460ff16945094509450945050615d2c565b505b90919293565b6002600d60003373ffffffffffffffffffffffffffffffffffffffff1673ffffffffffffffffffffffffffffffffffffffff1681526020019081526020016000206003015414615dea576040517f08c379a00000000000000000000000000000000000000000000000000000000081526004018080602001828103825260198152602001807f596f7520617265206e6f74206120445053206f6666696365720000000000000081525060200191505060405180910390fd5b6000151560048281548110615dfb57fe5b906000526020600020906006020160050160009054906101000a900460ff16151514615e8f576040517f08c379a000000000000000000000000000000000000000000000000000000000815260040180806020018281038252601b8152602001807f56656869636c6520697320616c7265616479207665726966696564000000000081525060200191505060405180910390fd5b600160048281548110615e9e57fe5b906000526020600020906006020160050160006101000a81548160ff02191690831515021790555050565b600080606060008060006002600d60003373ffffffffffffffffffffffffffffffffffffffff1673ffffffffffffffffffffffffffffffffffffffff1681526020019081526020016000206003015414615f8b576040517f08c379a00000000000000000000000000000000000000000000000000000000081526004018080602001828103825260198152602001807f596f7520617265206e6f74206120445053206f6666696365720000000000000081525060200191505060405180910390fd5b600080905060048054905081116161105760048181548110615fa957fe5b90600052602060002090600602016000015460048281548110615fc857fe5b90600052602060002090600602016001015460048381548110615fe757fe5b90600052602060002090600602016002016004848154811061600557fe5b9060005260206000209060060201600301546004858154811061602457fe5b9060005260206000209060060201600401546004868154811061604357fe5b906000526020600020906006020160050160009054906101000a900460ff16838054600181600116156101000203166002900480601f0160208091040260200160405190810160405280929190818152602001828054600181600116156101000203166002900480156160f75780601f106160cc576101008083540402835291602001916160f7565b820191906000526020600020905b8154815290600101906020018083116160da57829003601f168201915b5050505050935096509650965096509650965050616112565b505b909192939495565b6000606060008060008060008060006002600d60003373ffffffffffffffffffffffffffffffffffffffff1673ffffffffffffffffffffffffffffffffffffffff16815260200190815260200160002060030154146161e1576040517f08c379a00000000000000000000000000000000000000000000000000000000081526004018080602001828103825260198152602001807f596f7520617265206e6f74206120445053206f6666696365720000000000000081525060200191505060405180910390fd5b600080905060018054905081116163ec57600181815481106161ff57fe5b9060005260206000209060080201600001546001828154811061621e57fe5b90600052602060002090600802016001016001838154811061623c57fe5b9060005260206000209060080201600201546001848154811061625b57fe5b9060005260206000209060080201600301546001858154811061627a57fe5b9060005260206000209060080201600401546001868154811061629957fe5b906000526020600020906008020160050154600187815481106162b857fe5b906000526020600020906008020160060154600188815481106162d757fe5b906000526020600020906008020160070160009054906101000a900473ffffffffffffffffffffffffffffffffffffffff166001898154811061631657fe5b906000526020600020906008020160070160149054906101000a900460ff16878054600181600116156101000203166002900480601f0160208091040260200160405190810160405280929190818152602001828054600181600116156101000203166002900480156163ca5780601f1061639f576101008083540402835291602001916163ca565b820191906000526020600020905b8154815290600101906020018083116163ad57829003601f168201915b50505050509750819150995099509950995099509950995099509950506163ee565b505b909192939495969798565b600060606000806000806000806000600d60003373ffffffffffffffffffffffffffffffffffffffff1673ffffffffffffffffffffffffffffffffffffffff16815260200190815260200160002060020160009054906101000a900473ffffffffffffffffffffffffffffffffffffffff1673ffffffffffffffffffffffffffffffffffffffff166001600d60003373ffffffffffffffffffffffffffffffffffffffff1673ffffffffffffffffffffffffffffffffffffffff16815260200190815260200160002060000154815481106164d057fe5b906000526020600020906008020160070160009054906101000a900473ffffffffffffffffffffffffffffffffffffffff1673ffffffffffffffffffffffffffffffffffffffff161461656e576040517f08c379a00000000000000000000000000000000000000000000000000000000081526004018080602001828103825260288152602001806170836028913960400191505060405180910390fd5b6001600d60003373ffffffffffffffffffffffffffffffffffffffff1673ffffffffffffffffffffffffffffffffffffffff16815260200190815260200160002060000154815481106165bd57fe5b9060005260206000209060080201600001546001600d60003373ffffffffffffffffffffffffffffffffffffffff1673ffffffffffffffffffffffffffffffffffffffff168152602001908152602001600020600001548154811061661e57fe5b90600052602060002090600802016001016001600d60003373ffffffffffffffffffffffffffffffffffffffff1673ffffffffffffffffffffffffffffffffffffffff168152602001908152602001600020600001548154811061667e57fe5b9060005260206000209060080201600201546001600d60003373ffffffffffffffffffffffffffffffffffffffff1673ffffffffffffffffffffffffffffffffffffffff16815260200190815260200160002060000154815481106166df57fe5b9060005260206000209060080201600301546001600d60003373ffffffffffffffffffffffffffffffffffffffff1673ffffffffffffffffffffffffffffffffffffffff168152602001908152602001600020600001548154811061674057fe5b9060005260206000209060080201600401546001600d60003373ffffffffffffffffffffffffffffffffffffffff1673ffffffffffffffffffffffffffffffffffffffff16815260200190815260200160002060000154815481106167a157fe5b9060005260206000209060080201600501546001600d60003373ffffffffffffffffffffffffffffffffffffffff1673ffffffffffffffffffffffffffffffffffffffff168152602001908152602001600020600001548154811061680257fe5b9060005260206000209060080201600601546001600d60003373ffffffffffffffffffffffffffffffffffffffff1673ffffffffffffffffffffffffffffffffffffffff168152602001908152602001600020600001548154811061686357fe5b906000526020600020906008020160070160009054906101000a900473ffffffffffffffffffffffffffffffffffffffff166001600d60003373ffffffffffffffffffffffffffffffffffffffff1673ffffffffffffffffffffffffffffffffffffffff16815260200190815260200160002060000154815481106168e457fe5b906000526020600020906008020160070160149054906101000a900460ff16878054600181600116156101000203166002900480601f0160208091040260200160405190810160405280929190818152602001828054600181600116156101000203166002900480156169985780601f1061696d57610100808354040283529160200191616998565b820191906000526020600020905b81548152906001019060200180831161697b57829003601f168201915b50505050509750819150985098509850985098509850985098509850909192939495969798565b60008060608060008060006002600d60003373ffffffffffffffffffffffffffffffffffffffff1673ffffffffffffffffffffffffffffffffffffffff1681526020019081526020016000206003015414616a82576040517f08c379a00000000000000000000000000000000000000000000000000000000081526004018080602001828103825260198152602001807f596f7520617265206e6f74206120445053206f6666696365720000000000000081525060200191505060405180910390fd5b60008090506003805490508111616d2c576000151560038281548110616aa457fe5b906000526020600020906007020160060160019054906101000a900460ff16151514616acf57600080fd5b60038181548110616adc57fe5b90600052602060002090600702016000015460038281548110616afb57fe5b90600052602060002090600702016001015460038381548110616b1a57fe5b906000526020600020906007020160020160038481548110616b3857fe5b906000526020600020906007020160030160038581548110616b5657fe5b906000526020600020906007020160040160009054906101000a900473ffffffffffffffffffffffffffffffffffffffff1660038681548110616b9557fe5b906000526020600020906007020160060160009054906101000a900460ff1660038781548110616bc157fe5b906000526020600020906007020160060160019054906101000a900460ff16848054600181600116156101000203166002900480601f016020809104026020016040519081016040528092919081815260200182805460018160011615610100020316600290048015616c755780601f10616c4a57610100808354040283529160200191616c75565b820191906000526020600020905b815481529060010190602001808311616c5857829003601f168201915b50505050509450838054600181600116156101000203166002900480601f016020809104026020016040519081016040528092919081815260200182805460018160011615610100020316600290048015616d115780601f10616ce657610100808354040283529160200191616d11565b820191906000526020600020905b815481529060010190602001808311616cf457829003601f168201915b50505050509350975097509750975097509750975050616d2e565b505b90919293949596565b6002600d60003373ffffffffffffffffffffffffffffffffffffffff1673ffffffffffffffffffffffffffffffffffffffff1681526020019081526020016000206003015414616def576040517f08c379a00000000000000000000000000000000000000000000000000000000081526004018080602001828103825260198152602001807f596f7520617265206e6f74206120445053206f6666696365720000000000000081525060200191505060405180910390fd5b600760405180608001604052806007805490508152602001838152602001428152602001600015158152509080600181540180825580915050906001820390600052602060002090600402016000909192909190915060008201518160000155602082015181600101556040820151816002015560608201518160030160006101000a81548160ff02191690831515021790555050505050565b828054600181600116156101000203166002900490600052602060002090601f016020900481019282601f10616ec25780548555616eff565b82800160010185558215616eff57600052602060002091601f016020900482015b82811115616efe578254825591600101919060010190616ee3565b5b509050616f0c9190617010565b5090565b828054600181600116156101000203166002900490600052602060002090601f016020900481019282601f10616f5157805160ff1916838001178555616f7f565b82800160010185558215616f7f579182015b82811115616f7e578251825591602001919060010190616f63565b5b509050616f8c9190617010565b5090565b828054600181600116156101000203166002900490600052602060002090601f016020900481019282601f10616fd157805160ff1916838001178555616fff565b82800160010185558215616fff579182015b82811115616ffe578251825591602001919060010190616fe3565b5b50905061700c9190617010565b5090565b61703291905b8082111561702e576000816000905550600101617016565b5090565b9056fe445053206f66666963657220697320616c72656164792072656769737465726564596f75206861766520616c726561647920726567697374657265642061206472697665722070726f66696c65596f752068617665206e6f7420726567697374657265642061206472697665722070726f66696c65496e737572616e63652072657175657374206973206e6f74207665726966696564596f75206861766520616c726561647920706179656420616e20696e737572616e6365206665654c6963656e736520776974682074686973206e756d62657220697320616c726561647920726567697374657265644454502063617365206973206e6f7420636f6e6669726d656420627920647269766572596f7520617265206e6f74206120726571756573746572206f6620746869732072657175657374a265627a7a7231582026c45db5e3c23cfc0df1b25e633e8e40097763f05b1b163dbdfef6d4f7babad264736f6c63430005100032",
  "source": "pragma solidity 0.5.16;\r\n\r\ncontract safeTraffic {\r\n\r\n    struct vehicle {            //  \r\n        uint vehicleID;\r\n        uint ownerID;\r\n        string category;\r\n        uint periodOfUse;\r\n        uint marketValue;\r\n        bool verified;\r\n        bool insuranceStatus;\r\n    }\r\n\r\n    struct driversLicense {     //   \r\n        uint ownerID;\r\n        uint number;\r\n        string validTime;\r\n        string category;\r\n        address ownerAddress;\r\n        uint activeTo;\r\n        bool verified;\r\n        bool active;\r\n    }\r\n\r\n    struct user {               //  \r\n        uint userID;\r\n        string FIO;\r\n        address payable userAddress;\r\n        uint role;              // 0 - user, 1 - driver, 2 - DPS\r\n    }\r\n\r\n    struct driver {             //  \r\n        uint userID;\r\n        string FIO;\r\n        uint licenseNumber;\r\n        uint expStartYear;\r\n        uint DTPcount;\r\n        uint unpayedFines;\r\n        uint balance;\r\n        address payable driverAddress;\r\n        bool insuranceStatus;\r\n    }\r\n\r\n    struct DPSofficer {         //   \r\n        uint userID;\r\n        string FIO;\r\n        address officerAddress;\r\n    }\r\n\r\n    struct insuranceRequest {\r\n        uint requestID;\r\n        uint requesterID;\r\n        string requesterFIO;\r\n        uint vehicleID;\r\n        uint insuranceFee;\r\n        address requesterAddress;\r\n        bool readyToPay;\r\n        bool payStatus;\r\n    }\r\n\r\n    struct DTP {\r\n        uint DTPid;\r\n        uint victimID;\r\n        uint victimLicenseNumber;\r\n        string DTPdate;\r\n        bool confirmed;\r\n        bool insurancePayed;\r\n    }\r\n\r\n    struct fine {\r\n        uint fineID;\r\n        uint driverID;\r\n        uint fineDateInSec;\r\n        bool payStatus;\r\n    }\r\n\r\n    user[] users;                       //  \r\n    driver[] drivers;                   //  \r\n    DPSofficer[] DPSofficers;           //   \r\n    driversLicense[] driversLicenses;   //   \r\n    vehicle[] vehicles;                 //   \r\n    insuranceRequest[] insuranceRequests;   //     \r\n    DTP[] DTPs;                         //  \r\n    fine[] fines;\r\n\r\n    address admin = msg.sender;\r\n    address payable ZAddress = 0x0000000000000000000000000000000000000000;\r\n    address payable insurance = 0x583031D1113aD414F02576BD6afaBfb302140225;\r\n    address payable bank = 0xdD870fA1b7C4700F2BD7f44238821C26f7392148;\r\n\r\n    modifier IsAdmin {  // a \" \"\r\n        require(msg.sender == admin, \"You are not admin\");\r\n        _;\r\n    }\r\n\r\n    modifier InDriverMode { //  \"  \"\r\n        require(usersMap[msg.sender].role == 1, \"You are not in Driver mode\");\r\n        _;\r\n    }\r\n\r\n    modifier InDPSmode {    //  \"   \"\r\n        require(usersMap[msg.sender].role == 2, \"You are not a DPS officer\");\r\n        _;\r\n    }\r\n\r\n    mapping (uint => string) vehicleCategories;\r\n    mapping (address => user) usersMap;\r\n    mapping (string => uint) categoriesByName;\r\n\r\n    constructor () public {\r\n        vehicleCategories[1] = \"A\";\r\n        vehicleCategories[2] = \"B\";\r\n        vehicleCategories[3] = \"C\";\r\n\r\n        categoriesByName[\"A\"] = 1;\r\n        categoriesByName[\"B\"] = 2;\r\n        categoriesByName[\"C\"] = 3;\r\n    }\r\n\r\n    function regUser(string memory _FIO) public {   //   \r\n        require(usersMap[msg.sender].userAddress == ZAddress, \"You are already registered\");    // :  ,   ,  ,          .\r\n        users.push(user(users.length, _FIO, msg.sender, 0));    //     \r\n        usersMap[msg.sender].userID = users.length - 1;         //   ID    \r\n        usersMap[msg.sender].FIO = _FIO;                        //      \r\n        usersMap[msg.sender].userAddress = msg.sender;          //    ,      \r\n        usersMap[msg.sender].role = 0;                          //      \r\n        drivers.push(driver(usersMap[msg.sender].userID, \"null\", 0, 0, 0, 0, 0, ZAddress, false)); //        .       .\r\n        DPSofficers.push(DPSofficer(usersMap[msg.sender].userID, \"null\", ZAddress));    //        .\r\n    }\r\n\r\n    function getUserInfo() public view returns (uint, string memory, address, uint) {   //       (    )\r\n        require(usersMap[msg.sender].userAddress == msg.sender, \"You are not registered\");  // :     \r\n        return(usersMap[msg.sender].userID, usersMap[msg.sender].FIO, usersMap[msg.sender].userAddress, usersMap[msg.sender].role); //  \r\n    }\r\n\r\n    function regDriverProfile(uint _expStartYear) public {  //    .      \r\n        require(usersMap[msg.sender].role == 0, \"You are not in User mode\");    // :   ,  ,   \r\n        require(drivers[usersMap[msg.sender].userID].driverAddress != usersMap[msg.sender].userAddress, \"You have already registered a driver profile\");    // :    ,  ,   \r\n        drivers[usersMap[msg.sender].userID].FIO = usersMap[msg.sender].FIO;    //     \r\n        drivers[usersMap[msg.sender].userID].expStartYear = _expStartYear;      //        \r\n        drivers[usersMap[msg.sender].userID].driverAddress = usersMap[msg.sender].userAddress;  //      (    )\r\n        driversLicenses.push(driversLicense(usersMap[msg.sender].userID, 0, \"null\", \"null\", ZAddress, 0, false, false));    //       .        \r\n    }\r\n\r\n    function getDriverInfo() public view returns (uint, string memory, uint, uint, uint, uint, uint, address, bool) {   //       (    )\r\n        require(drivers[usersMap[msg.sender].userID].driverAddress == usersMap[msg.sender].userAddress, \"You have not registered a driver profile\");\r\n        return (drivers[usersMap[msg.sender].userID].userID,\r\n        drivers[usersMap[msg.sender].userID].FIO,\r\n        drivers[usersMap[msg.sender].userID].licenseNumber,\r\n        drivers[usersMap[msg.sender].userID].expStartYear,\r\n        drivers[usersMap[msg.sender].userID].DTPcount,\r\n        drivers[usersMap[msg.sender].userID].unpayedFines,\r\n        drivers[usersMap[msg.sender].userID].balance,\r\n        drivers[usersMap[msg.sender].userID].driverAddress,\r\n        drivers[usersMap[msg.sender].userID].insuranceStatus);\r\n    }\r\n\r\n    function getDriversForDPS() public view InDPSmode returns (uint, string memory, uint, uint, uint, uint, uint, address, bool) {    //    (     )\r\n        for(uint i = 0; i <= drivers.length; i++) {\r\n            return (drivers[i].userID, drivers[i].FIO, drivers[i].licenseNumber, drivers[i].expStartYear, drivers[i].DTPcount, drivers[i].unpayedFines, drivers[i].balance, drivers[i].driverAddress, drivers[i].insuranceStatus);\r\n        }\r\n    }\r\n\r\n    function regDPSofficerProfile(uint _userID) public IsAdmin {    //     (   )\r\n        require(DPSofficers[_userID].officerAddress == ZAddress, \"DPS officer is already registered\");  // :    \r\n        DPSofficers[_userID].FIO = users[_userID].FIO;  //      \r\n        DPSofficers[_userID].officerAddress = users[_userID].userAddress;   //      (    )\r\n    }\r\n\r\n    function userMode() public {    //    \r\n        require(usersMap[msg.sender].userAddress == msg.sender, \"You have not registered\");\r\n        require(usersMap[msg.sender].role != 0, \"You are already in User mode\");\r\n        users[usersMap[msg.sender].userID].role = 0;\r\n        usersMap[msg.sender].role = 0;\r\n    }\r\n\r\n    function driverMode() public {  //    \r\n        require(drivers[usersMap[msg.sender].userID].driverAddress == usersMap[msg.sender].userAddress, \"You have not registered a driver profile\");\r\n        require(usersMap[msg.sender].role != 1, \"You are already in Driver mode\");\r\n        users[usersMap[msg.sender].userID].role = 1;\r\n        usersMap[msg.sender].role = 1;\r\n    }\r\n\r\n    function DPSmode() public { //     \r\n        require(DPSofficers[usersMap[msg.sender].userID].officerAddress == usersMap[msg.sender].userAddress, \"You are not DPS officer\");\r\n        require(usersMap[msg.sender].role != 2, \"You are already in DPS mode\");\r\n        users[usersMap[msg.sender].userID].role = 2;\r\n        usersMap[msg.sender].role = 2;\r\n    }\r\n\r\n    function regDriversLicense(uint _number, string memory _validTime, string memory _categoryLetter) public InDriverMode { //     (     )\r\n        require(_number != driversLicenses[usersMap[msg.sender].userID].number, \"License with this number is already registered\");\r\n        //require(_categoryLetter == \"A\", \"Category does not exist\"); //   (   )\r\n        driversLicenses[usersMap[msg.sender].userID].number = _number;\r\n        driversLicenses[usersMap[msg.sender].userID].validTime = _validTime;\r\n        driversLicenses[usersMap[msg.sender].userID].category = _categoryLetter;\r\n        driversLicenses[usersMap[msg.sender].userID].ownerAddress = msg.sender;\r\n    }\r\n\r\n    function getDriversLicenses() public view InDPSmode returns (uint, uint, string memory, string memory, address, bool, bool) {  //       (     ).            ID.\r\n        for(uint i = 0; i <= driversLicenses.length; i++) {\r\n            require(driversLicenses[i].active == false);\r\n            return(driversLicenses[i].ownerID, driversLicenses[i].number, driversLicenses[i].validTime, driversLicenses[i].category, driversLicenses[i].ownerAddress, driversLicenses[i].verified, driversLicenses[i].active);\r\n        }\r\n    }\r\n\r\n    function verifyDriversLicense(uint _ownerID) public InDPSmode { //     (     )\r\n        require(driversLicenses[_ownerID].verified == false, \"License is already verified\");\r\n        driversLicenses[_ownerID].verified = true;\r\n        driversLicenses[_ownerID].active = true;\r\n        drivers[_ownerID].licenseNumber = driversLicenses[_ownerID].number;\r\n        driversLicenses[_ownerID].activeTo = block.timestamp + 365*10*5;\r\n    }\r\n\r\n\r\n    function driversLicenseExtend() public InDriverMode {   //       (     )\r\n        require(driversLicenses[usersMap[msg.sender].userID].ownerAddress == msg.sender, \"You don't have a drivers license\");\r\n        require(driversLicenses[usersMap[msg.sender].userID].active == true, \"License is not active\");\r\n        require(block.timestamp > driversLicenses[usersMap[msg.sender].userID].activeTo - 5*30, \"Too early to expand\");\r\n        driversLicenses[usersMap[msg.sender].userID].activeTo = block.timestamp + 365*10*5;\r\n    }\r\n\r\n    function deactivateDriversLicense(uint _ownerID) public InDPSmode { //     (     )\r\n        require(block.timestamp > driversLicenses[_ownerID].activeTo, \"Too early to deactivate\");\r\n        driversLicenses[_ownerID].active = false;\r\n    }\r\n\r\n    function registerVehicle(string memory _categoryLetter, uint _periodOfUse, uint _marketValue) public InDriverMode { //     (     )\r\n        require(driversLicenses[usersMap[msg.sender].userID].verified == true, \"License is not verified\");\r\n        vehicles.push(vehicle(vehicles.length, usersMap[msg.sender].userID, _categoryLetter, _periodOfUse, _marketValue, false, false));\r\n    }\r\n\r\n    function getVehiclesForDPS() public view InDPSmode returns (uint, uint, string memory, uint, uint, bool) { //      (     )\r\n        for(uint i = 0; i <= vehicles.length; i++) {\r\n            return(vehicles[i].vehicleID, vehicles[i].ownerID, vehicles[i].category, vehicles[i].periodOfUse, vehicles[i].marketValue, vehicles[i].verified);\r\n        }\r\n    }\r\n\r\n    function verifyVehicle(uint _vehicleID) public InDPSmode {  //      (     )\r\n        require(vehicles[_vehicleID].verified == false, \"Vehicle is already verified\");\r\n        vehicles[_vehicleID].verified = true;\r\n    }\r\n\r\n    function getVehiclesForDriver() public view InDriverMode returns (uint, uint, string memory, uint, uint, bool) { //      (     )\r\n        require(vehicles[usersMap[msg.sender].userID].ownerID == usersMap[msg.sender].userID);\r\n        for(uint i = 0; i <= vehicles.length; i++) {\r\n            return(vehicles[i].vehicleID, vehicles[i].ownerID, vehicles[i].category, vehicles[i].periodOfUse, vehicles[i].marketValue, vehicles[i].verified);\r\n        }\r\n    }\r\n\r\n    function requestInsurance(string memory _FIO, uint _vehicleID) public InDriverMode {   //       (     )\r\n        require(driversLicenses[usersMap[msg.sender].userID].active == true, \"Drivers license is not active\");\r\n        require(drivers[usersMap[msg.sender].userID].insuranceStatus == false, \"You have already payed an insurance fee\");\r\n        require(vehicles[_vehicleID].ownerID == usersMap[msg.sender].userID);\r\n        require(vehicles[_vehicleID].verified == true);\r\n        insuranceRequests.push(insuranceRequest(insuranceRequests.length, usersMap[msg.sender].userID, _FIO, _vehicleID, 0, usersMap[msg.sender].userAddress, false, false));\r\n    }\r\n\r\n    function getInsuranceRequests() public view returns(uint, uint, string memory, uint, address) { //      \r\n        require(msg.sender == insurance, \"You are not an insurance\");   //       \r\n        for(uint i = 0; i <= insuranceRequests.length; i++) {\r\n            require(insuranceRequests[i].readyToPay == false);\r\n            require(insuranceRequests[i].payStatus == false);\r\n            return (insuranceRequests[i].requestID,\r\n            insuranceRequests[i].requesterID,\r\n            insuranceRequests[i].requesterFIO,\r\n            insuranceRequests[i].vehicleID,\r\n            insuranceRequests[i].requesterAddress);\r\n        }\r\n    }\r\n\r\n    function verifyInsuranceRequest(uint _requestID) public {   //     \r\n        require(msg.sender == insurance, \"You are not an insurance\");   //       \r\n        require(insuranceRequests[_requestID].readyToPay == false);\r\n        require(insuranceRequests[_requestID].payStatus == false);\r\n        insuranceRequests[_requestID].readyToPay = true;\r\n        insuranceRequests[_requestID].insuranceFee = vehicles[insuranceRequests[_requestID].vehicleID].marketValue * (1 - vehicles[insuranceRequests[_requestID].vehicleID].periodOfUse) + 2 * drivers[insuranceRequests[_requestID].requesterID].unpayedFines + drivers[insuranceRequests[_requestID].requesterID].DTPcount - 2*(block.timestamp/31536000 - drivers[insuranceRequests[_requestID].requesterID].expStartYear);\r\n    }\r\n\r\n    function getDriversInsuranceRequests() public view InDriverMode returns(uint, uint, string memory, uint, uint, address, bool, bool) {   //       ,   (      )    ID ,        \r\n        for(uint i = 0; i <= insuranceRequests.length; i++) {\r\n            require(insuranceRequests[i].requesterAddress == msg.sender);\r\n            return (insuranceRequests[i].requestID,\r\n            insuranceRequests[i].requesterID,\r\n            insuranceRequests[i].requesterFIO,\r\n            insuranceRequests[i].vehicleID,\r\n            insuranceRequests[i].insuranceFee,\r\n            insuranceRequests[i].requesterAddress,\r\n            insuranceRequests[i].readyToPay,\r\n            insuranceRequests[i].payStatus);\r\n        }\r\n    }\r\n\r\n    function payInsuranceFee(uint _requestID) public InDriverMode { //     (     )\r\n        require(msg.sender == insuranceRequests[_requestID].requesterAddress, \"You are not a requester of this request\");\r\n        require(insuranceRequests[_requestID].readyToPay == true, \"Insurance request is not verified\");\r\n        require(insuranceRequests[_requestID].payStatus == false, \"Insurance fee is already payed\");\r\n        insurance.transfer(insuranceRequests[_requestID].insuranceFee);\r\n        drivers[usersMap[msg.sender].userID].balance = drivers[usersMap[msg.sender].userID].balance - insuranceRequests[_requestID].insuranceFee;\r\n        insuranceRequests[_requestID].readyToPay = false;\r\n        insuranceRequests[_requestID].payStatus = true;\r\n        drivers[usersMap[msg.sender].userID].insuranceStatus = true;\r\n    }\r\n\r\n    function registerDTP(uint _victimID, string memory _DTPdate) public InDPSmode { //    (     )\r\n        DTPs.push(DTP(DTPs.length, _victimID, drivers[_victimID].licenseNumber, _DTPdate, false, false));\r\n    }\r\n\r\n\r\n    function getDTPsForDriver() public view InDriverMode returns(uint, uint, uint, string memory, bool) {    //     ,   (     )\r\n        for(uint i = 0; i <= DTPs.length; i++) {\r\n            require(DTPs[i].victimLicenseNumber == drivers[usersMap[msg.sender].userID].licenseNumber);\r\n            return(DTPs[i].DTPid, DTPs[i].victimID, DTPs[i].victimLicenseNumber, DTPs[i].DTPdate, DTPs[i].confirmed);\r\n        }\r\n    }\r\n\r\n    function confirmDTP(uint _DTPid) public InDriverMode {  //      (     )\r\n        require(DTPs[_DTPid].victimLicenseNumber == drivers[usersMap[msg.sender].userID].licenseNumber, \"Drivers license check error\");\r\n        require(DTPs[_DTPid].confirmed == false, \"DTP case is already confirmed\");\r\n        DTPs[_DTPid].confirmed = true;\r\n    }\r\n\r\n    function insuranceCasePayback(uint _DTPid, uint _requestID) public { //    \r\n        require(msg.sender == insurance, \"You are not an insurance\");   //       \r\n        require(DTPs[_DTPid].confirmed == true, \"DTP case is not confirmed by driver\");\r\n        drivers[DTPs[_DTPid].victimID].driverAddress.transfer(insuranceRequests[_requestID].insuranceFee);\r\n        drivers[DTPs[_DTPid].victimID].balance = drivers[DTPs[_DTPid].victimID].balance + insuranceRequests[_requestID].insuranceFee;\r\n    }\r\n\r\n    function registerFine(uint _driverID) public InDPSmode {  //    (     )\r\n        fines.push(fine(fines.length, _driverID, block.timestamp, false));\r\n    }\r\n\r\n    function getFinesForDriver() public view InDriverMode returns(uint, uint, uint, bool) { //     (     )\r\n        for(uint i = 0; i <= DTPs.length; i++) {\r\n            require(fines[i].driverID == usersMap[msg.sender].userID);\r\n            return(fines[i].fineID, fines[i].driverID, fines[i].fineDateInSec, fines[i].payStatus);\r\n        }\r\n    }\r\n\r\n    function payFine(uint _fineID) public InDriverMode {    //    (     )\r\n        require(fines[_fineID].driverID == usersMap[msg.sender].userID, \"That's not your fine\");\r\n        if(block.timestamp > fines[_fineID].fineDateInSec + 5*5) {\r\n            insurance.transfer(10);\r\n        }\r\n        else {\r\n            insurance.transfer(5);\r\n        }\r\n    }\r\n\r\n}",
  "sourcePath": "C:/Users/Roman/WebstormProjects/wsr/src/contracts/Contract.sol",
  "compiler": {
    "name": "solc",
    "version": "0.5.16+commit.9c3226ce.Emscripten.clang"
  },
  "schemaVersion": "3.2.5",
  "updatedAt": "2020-10-20T17:00:30.500Z",
  "devdoc": {
    "methods": {}
  },
  "userdoc": {
    "methods": {}
  }
}